{
  "contractName": "SmartParking",
  "abi": [
    {
      "inputs": [],
      "payable": false,
      "stateMutability": "nonpayable",
      "type": "constructor"
    },
    {
      "anonymous": false,
      "inputs": [
        {
          "indexed": false,
          "internalType": "address",
          "name": "from",
          "type": "address"
        },
        {
          "indexed": false,
          "internalType": "address",
          "name": "to",
          "type": "address"
        },
        {
          "indexed": false,
          "internalType": "uint256",
          "name": "amount",
          "type": "uint256"
        }
      ],
      "name": "Sent",
      "type": "event"
    },
    {
      "anonymous": false,
      "inputs": [
        {
          "indexed": false,
          "internalType": "uint256",
          "name": "_id",
          "type": "uint256"
        }
      ],
      "name": "UserAdded",
      "type": "event"
    },
    {
      "anonymous": false,
      "inputs": [
        {
          "indexed": false,
          "internalType": "uint256",
          "name": "_id",
          "type": "uint256"
        }
      ],
      "name": "UserDeleted",
      "type": "event"
    },
    {
      "anonymous": false,
      "inputs": [
        {
          "indexed": false,
          "internalType": "uint256",
          "name": "_id",
          "type": "uint256"
        }
      ],
      "name": "UserEdited",
      "type": "event"
    },
    {
      "anonymous": false,
      "inputs": [
        {
          "indexed": false,
          "internalType": "uint256",
          "name": "_id",
          "type": "uint256"
        }
      ],
      "name": "VehicleAdded",
      "type": "event"
    },
    {
      "anonymous": false,
      "inputs": [
        {
          "indexed": false,
          "internalType": "uint256",
          "name": "_id",
          "type": "uint256"
        }
      ],
      "name": "VehicleDeleted",
      "type": "event"
    },
    {
      "anonymous": false,
      "inputs": [
        {
          "indexed": false,
          "internalType": "uint256",
          "name": "_id",
          "type": "uint256"
        }
      ],
      "name": "VehicleEdited",
      "type": "event"
    },
    {
      "constant": true,
      "inputs": [],
      "name": "UserCount",
      "outputs": [
        {
          "internalType": "uint256",
          "name": "",
          "type": "uint256"
        }
      ],
      "payable": false,
      "stateMutability": "view",
      "type": "function"
    },
    {
      "constant": true,
      "inputs": [
        {
          "internalType": "uint256",
          "name": "",
          "type": "uint256"
        }
      ],
      "name": "adopters",
      "outputs": [
        {
          "internalType": "address",
          "name": "",
          "type": "address"
        }
      ],
      "payable": false,
      "stateMutability": "view",
      "type": "function"
    },
    {
      "constant": true,
      "inputs": [
        {
          "internalType": "address",
          "name": "",
          "type": "address"
        }
      ],
      "name": "balance",
      "outputs": [
        {
          "internalType": "uint256",
          "name": "",
          "type": "uint256"
        }
      ],
      "payable": false,
      "stateMutability": "view",
      "type": "function"
    },
    {
      "constant": true,
      "inputs": [],
      "name": "minter",
      "outputs": [
        {
          "internalType": "address",
          "name": "",
          "type": "address"
        }
      ],
      "payable": false,
      "stateMutability": "view",
      "type": "function"
    },
    {
      "constant": true,
      "inputs": [
        {
          "internalType": "address",
          "name": "",
          "type": "address"
        }
      ],
      "name": "userBalances",
      "outputs": [
        {
          "internalType": "uint256",
          "name": "",
          "type": "uint256"
        }
      ],
      "payable": false,
      "stateMutability": "view",
      "type": "function"
    },
    {
      "constant": true,
      "inputs": [
        {
          "internalType": "uint256",
          "name": "",
          "type": "uint256"
        }
      ],
      "name": "users",
      "outputs": [
        {
          "internalType": "uint256",
          "name": "id",
          "type": "uint256"
        },
        {
          "internalType": "string",
          "name": "name",
          "type": "string"
        },
        {
          "internalType": "string",
          "name": "password",
          "type": "string"
        },
        {
          "internalType": "string",
          "name": "phone",
          "type": "string"
        }
      ],
      "payable": false,
      "stateMutability": "view",
      "type": "function"
    },
    {
      "constant": true,
      "inputs": [],
      "name": "vehicleCount",
      "outputs": [
        {
          "internalType": "uint256",
          "name": "",
          "type": "uint256"
        }
      ],
      "payable": false,
      "stateMutability": "view",
      "type": "function"
    },
    {
      "constant": true,
      "inputs": [
        {
          "internalType": "uint256",
          "name": "",
          "type": "uint256"
        }
      ],
      "name": "vehicles",
      "outputs": [
        {
          "internalType": "uint256",
          "name": "id",
          "type": "uint256"
        },
        {
          "internalType": "string",
          "name": "brand",
          "type": "string"
        },
        {
          "internalType": "string",
          "name": "lisencePlate",
          "type": "string"
        },
        {
          "internalType": "string",
          "name": "model",
          "type": "string"
        }
      ],
      "payable": false,
      "stateMutability": "view",
      "type": "function"
    },
    {
      "constant": false,
      "inputs": [
        {
          "internalType": "address",
          "name": "receiver",
          "type": "address"
        },
        {
          "internalType": "uint256",
          "name": "amount",
          "type": "uint256"
        }
      ],
      "name": "mint",
      "outputs": [],
      "payable": false,
      "stateMutability": "nonpayable",
      "type": "function"
    },
    {
      "constant": false,
      "inputs": [
        {
          "internalType": "address",
          "name": "sender",
          "type": "address"
        },
        {
          "internalType": "address",
          "name": "receiver",
          "type": "address"
        },
        {
          "internalType": "uint256",
          "name": "amount",
          "type": "uint256"
        }
      ],
      "name": "send",
      "outputs": [],
      "payable": false,
      "stateMutability": "nonpayable",
      "type": "function"
    },
    {
      "constant": true,
      "inputs": [],
      "name": "getUserCount",
      "outputs": [
        {
          "internalType": "uint256",
          "name": "",
          "type": "uint256"
        }
      ],
      "payable": false,
      "stateMutability": "view",
      "type": "function"
    },
    {
      "constant": false,
      "inputs": [
        {
          "internalType": "string",
          "name": "_name",
          "type": "string"
        },
        {
          "internalType": "string",
          "name": "_password",
          "type": "string"
        },
        {
          "internalType": "string",
          "name": "_phone",
          "type": "string"
        }
      ],
      "name": "addUser",
      "outputs": [],
      "payable": false,
      "stateMutability": "nonpayable",
      "type": "function"
    },
    {
      "constant": false,
      "inputs": [
        {
          "internalType": "uint256",
          "name": "_id",
          "type": "uint256"
        }
      ],
      "name": "deleteUser",
      "outputs": [],
      "payable": false,
      "stateMutability": "nonpayable",
      "type": "function"
    },
    {
      "constant": false,
      "inputs": [
        {
          "internalType": "uint256",
          "name": "_id",
          "type": "uint256"
        },
        {
          "internalType": "string",
          "name": "_name",
          "type": "string"
        },
        {
          "internalType": "string",
          "name": "_password",
          "type": "string"
        },
        {
          "internalType": "string",
          "name": "_phone",
          "type": "string"
        }
      ],
      "name": "editUser",
      "outputs": [],
      "payable": false,
      "stateMutability": "nonpayable",
      "type": "function"
    },
    {
      "constant": true,
      "inputs": [
        {
          "internalType": "string",
          "name": "_name",
          "type": "string"
        },
        {
          "internalType": "string",
          "name": "_password",
          "type": "string"
        }
      ],
      "name": "signin",
      "outputs": [
        {
          "internalType": "bool",
          "name": "",
          "type": "bool"
        }
      ],
      "payable": false,
      "stateMutability": "view",
      "type": "function"
    },
    {
      "constant": false,
      "inputs": [
        {
          "internalType": "uint256",
          "name": "catId",
          "type": "uint256"
        },
        {
          "internalType": "address",
          "name": "adopter",
          "type": "address"
        },
        {
          "internalType": "string",
          "name": "duration",
          "type": "string"
        },
        {
          "internalType": "string",
          "name": "startTime",
          "type": "string"
        }
      ],
      "name": "adopt",
      "outputs": [
        {
          "internalType": "uint256",
          "name": "",
          "type": "uint256"
        }
      ],
      "payable": false,
      "stateMutability": "nonpayable",
      "type": "function"
    },
    {
      "constant": true,
      "inputs": [],
      "name": "getAdopters",
      "outputs": [
        {
          "internalType": "address[20]",
          "name": "",
          "type": "address[20]"
        }
      ],
      "payable": false,
      "stateMutability": "view",
      "type": "function"
    },
    {
      "constant": true,
      "inputs": [],
      "name": "getVehiculeCount",
      "outputs": [
        {
          "internalType": "uint256",
          "name": "",
          "type": "uint256"
        }
      ],
      "payable": false,
      "stateMutability": "view",
      "type": "function"
    },
    {
      "constant": false,
      "inputs": [
        {
          "internalType": "string",
          "name": "_brand",
          "type": "string"
        },
        {
          "internalType": "string",
          "name": "_lisencePlate",
          "type": "string"
        },
        {
          "internalType": "string",
          "name": "_model",
          "type": "string"
        }
      ],
      "name": "addVehicle",
      "outputs": [],
      "payable": false,
      "stateMutability": "nonpayable",
      "type": "function"
    },
    {
      "constant": false,
      "inputs": [
        {
          "internalType": "uint256",
          "name": "_id",
          "type": "uint256"
        }
      ],
      "name": "deleteVehicle",
      "outputs": [],
      "payable": false,
      "stateMutability": "nonpayable",
      "type": "function"
    },
    {
      "constant": false,
      "inputs": [
        {
          "internalType": "uint256",
          "name": "_id",
          "type": "uint256"
        },
        {
          "internalType": "string",
          "name": "_brand",
          "type": "string"
        },
        {
          "internalType": "string",
          "name": "_lisencePlate",
          "type": "string"
        },
        {
          "internalType": "string",
          "name": "_model",
          "type": "string"
        }
      ],
      "name": "editVehicle",
      "outputs": [],
      "payable": false,
      "stateMutability": "nonpayable",
      "type": "function"
    }
  ],
  "bytecode": "0x608060405234801561001057600080fd5b5033600160006101000a81548173ffffffffffffffffffffffffffffffffffffffff021916908373ffffffffffffffffffffffffffffffffffffffff160217905550600060038190555060008081905550612147806100706000396000f3fe608060405234801561001057600080fd5b5060043610610154576000357c0100000000000000000000000000000000000000000000000000000000900480634815e3d2116100d557806395c5fed41161009957806395c5fed414610ce8578063990a4a9a14610ed1578063997049371461103b578063b5cb15f714611059578063b8ba95fa14611077578063e3d670d7146111fd57610154565b80634815e3d21461056b57806349703bfb1461075e57806359332ad51461095157806374cc7e1314610b3a57806379012a4b14610cca57610154565b806338f148451161011c57806338f148451461040d5780633a4a2c0b1461043b5780633de4eb171461046957806340c10f19146104af57806343ae80d3146104fd57610154565b806307546172146101595780630779afe6146101a3578063159317241461021157806326224c641461022f578063365b98b214610287575b600080fd5b610161611255565b604051808273ffffffffffffffffffffffffffffffffffffffff1673ffffffffffffffffffffffffffffffffffffffff16815260200191505060405180910390f35b61020f600480360360608110156101b957600080fd5b81019080803573ffffffffffffffffffffffffffffffffffffffff169060200190929190803573ffffffffffffffffffffffffffffffffffffffff1690602001909291908035906020019092919050505061127b565b005b610219611405565b6040518082815260200191505060405180910390f35b6102716004803603602081101561024557600080fd5b81019080803573ffffffffffffffffffffffffffffffffffffffff16906020019092919050505061140b565b6040518082815260200191505060405180910390f35b6102b36004803603602081101561029d57600080fd5b8101908080359060200190929190505050611423565b60405180858152602001806020018060200180602001848103845287818151815260200191508051906020019080838360005b838110156103015780820151818401526020810190506102e6565b50505050905090810190601f16801561032e5780820380516001836020036101000a031916815260200191505b50848103835286818151815260200191508051906020019080838360005b8381101561036757808201518184015260208101905061034c565b50505050905090810190601f1680156103945780820380516001836020036101000a031916815260200191505b50848103825285818151815260200191508051906020019080838360005b838110156103cd5780820151818401526020810190506103b2565b50505050905090810190601f1680156103fa5780820380516001836020036101000a031916815260200191505b5097505050505050505060405180910390f35b6104396004803603602081101561042357600080fd5b810190808035906020019092919050505061161b565b005b6104676004803603602081101561045157600080fd5b81019080803590602001909291905050506116b6565b005b610471611750565b6040518082601460200280838360005b8381101561049c578082015181840152602081019050610481565b5050505090500191505060405180910390f35b6104fb600480360360408110156104c557600080fd5b81019080803573ffffffffffffffffffffffffffffffffffffffff169060200190929190803590602001909291905050506117d1565b005b6105296004803603602081101561051357600080fd5b8101908080359060200190929190505050611822565b604051808273ffffffffffffffffffffffffffffffffffffffff1673ffffffffffffffffffffffffffffffffffffffff16815260200191505060405180910390f35b61075c6004803603608081101561058157600080fd5b8101908080359060200190929190803590602001906401000000008111156105a857600080fd5b8201836020820111156105ba57600080fd5b803590602001918460018302840111640100000000831117156105dc57600080fd5b91908080601f016020809104026020016040519081016040528093929190818152602001838380828437600081840152601f19601f8201169050808301925050505050505091929192908035906020019064010000000081111561063f57600080fd5b82018360208201111561065157600080fd5b8035906020019184600183028401116401000000008311171561067357600080fd5b91908080601f016020809104026020016040519081016040528093929190818152602001838380828437600081840152601f19601f820116905080830192505050505050509192919290803590602001906401000000008111156106d657600080fd5b8201836020820111156106e857600080fd5b8035906020019184600183028401116401000000008311171561070a57600080fd5b91908080601f016020809104026020016040519081016040528093929190818152602001838380828437600081840152601f19601f820116905080830192505050505050509192919290505050611855565b005b61094f6004803603608081101561077457600080fd5b81019080803590602001909291908035906020019064010000000081111561079b57600080fd5b8201836020820111156107ad57600080fd5b803590602001918460018302840111640100000000831117156107cf57600080fd5b91908080601f016020809104026020016040519081016040528093929190818152602001838380828437600081840152601f19601f8201169050808301925050505050505091929192908035906020019064010000000081111561083257600080fd5b82018360208201111561084457600080fd5b8035906020019184600183028401116401000000008311171561086657600080fd5b91908080601f016020809104026020016040519081016040528093929190818152602001838380828437600081840152601f19601f820116905080830192505050505050509192919290803590602001906401000000008111156108c957600080fd5b8201836020820111156108db57600080fd5b803590602001918460018302840111640100000000831117156108fd57600080fd5b91908080601f016020809104026020016040519081016040528093929190818152602001838380828437600081840152601f19601f82011690508083019250505050505050919291929050505061192a565b005b610b386004803603606081101561096757600080fd5b810190808035906020019064010000000081111561098457600080fd5b82018360208201111561099657600080fd5b803590602001918460018302840111640100000000831117156109b857600080fd5b91908080601f016020809104026020016040519081016040528093929190818152602001838380828437600081840152601f19601f82011690508083019250505050505050919291929080359060200190640100000000811115610a1b57600080fd5b820183602082011115610a2d57600080fd5b80359060200191846001830284011164010000000083111715610a4f57600080fd5b91908080601f016020809104026020016040519081016040528093929190818152602001838380828437600081840152601f19601f82011690508083019250505050505050919291929080359060200190640100000000811115610ab257600080fd5b820183602082011115610ac457600080fd5b80359060200191846001830284011164010000000083111715610ae657600080fd5b91908080601f016020809104026020016040519081016040528093929190818152602001838380828437600081840152601f19601f8201169050808301925050505050505091929192905050506119ff565b005b610cb460048036036080811015610b5057600080fd5b8101908080359060200190929190803573ffffffffffffffffffffffffffffffffffffffff16906020019092919080359060200190640100000000811115610b9757600080fd5b820183602082011115610ba957600080fd5b80359060200191846001830284011164010000000083111715610bcb57600080fd5b91908080601f016020809104026020016040519081016040528093929190818152602001838380828437600081840152601f19601f82011690508083019250505050505050919291929080359060200190640100000000811115610c2e57600080fd5b820183602082011115610c4057600080fd5b80359060200191846001830284011164010000000083111715610c6257600080fd5b91908080601f016020809104026020016040519081016040528093929190818152602001838380828437600081840152601f19601f820116905080830192505050505050509192919290505050611ae9565b6040518082815260200191505060405180910390f35b610cd2611b5d565b6040518082815260200191505060405180910390f35b610ecf60048036036060811015610cfe57600080fd5b8101908080359060200190640100000000811115610d1b57600080fd5b820183602082011115610d2d57600080fd5b80359060200191846001830284011164010000000083111715610d4f57600080fd5b91908080601f016020809104026020016040519081016040528093929190818152602001838380828437600081840152601f19601f82011690508083019250505050505050919291929080359060200190640100000000811115610db257600080fd5b820183602082011115610dc457600080fd5b80359060200191846001830284011164010000000083111715610de657600080fd5b91908080601f016020809104026020016040519081016040528093929190818152602001838380828437600081840152601f19601f82011690508083019250505050505050919291929080359060200190640100000000811115610e4957600080fd5b820183602082011115610e5b57600080fd5b80359060200191846001830284011164010000000083111715610e7d57600080fd5b91908080601f016020809104026020016040519081016040528093929190818152602001838380828437600081840152601f19601f820116905080830192505050505050509192919290505050611b66565b005b61102160048036036040811015610ee757600080fd5b8101908080359060200190640100000000811115610f0457600080fd5b820183602082011115610f1657600080fd5b80359060200191846001830284011164010000000083111715610f3857600080fd5b91908080601f016020809104026020016040519081016040528093929190818152602001838380828437600081840152601f19601f82011690508083019250505050505050919291929080359060200190640100000000811115610f9b57600080fd5b820183602082011115610fad57600080fd5b80359060200191846001830284011164010000000083111715610fcf57600080fd5b91908080601f016020809104026020016040519081016040528093929190818152602001838380828437600081840152601f19601f820116905080830192505050505050509192919290505050611c92565b604051808215151515815260200191505060405180910390f35b611043611de2565b6040518082815260200191505060405180910390f35b611061611de8565b6040518082815260200191505060405180910390f35b6110a36004803603602081101561108d57600080fd5b8101908080359060200190929190505050611df2565b60405180858152602001806020018060200180602001848103845287818151815260200191508051906020019080838360005b838110156110f15780820151818401526020810190506110d6565b50505050905090810190601f16801561111e5780820380516001836020036101000a031916815260200191505b50848103835286818151815260200191508051906020019080838360005b8381101561115757808201518184015260208101905061113c565b50505050905090810190601f1680156111845780820380516001836020036101000a031916815260200191505b50848103825285818151815260200191508051906020019080838360005b838110156111bd5780820151818401526020810190506111a2565b50505050905090810190601f1680156111ea5780820380516001836020036101000a031916815260200191505b5097505050505050505060405180910390f35b61123f6004803603602081101561121357600080fd5b81019080803573ffffffffffffffffffffffffffffffffffffffff169060200190929190505050611fea565b6040518082815260200191505060405180910390f35b600160009054906101000a900473ffffffffffffffffffffffffffffffffffffffff1681565b80600260008573ffffffffffffffffffffffffffffffffffffffff1673ffffffffffffffffffffffffffffffffffffffff1681526020019081526020016000205410156112c757600080fd5b80600260008573ffffffffffffffffffffffffffffffffffffffff1673ffffffffffffffffffffffffffffffffffffffff1681526020019081526020016000206000828254039250508190555080600260008473ffffffffffffffffffffffffffffffffffffffff1673ffffffffffffffffffffffffffffffffffffffff168152602001908152602001600020600082825401925050819055507f3990db2d31862302a685e8086b5755072a6e2b5b780af1ee81ece35ee3cd3345838383604051808473ffffffffffffffffffffffffffffffffffffffff1673ffffffffffffffffffffffffffffffffffffffff1681526020018373ffffffffffffffffffffffffffffffffffffffff1673ffffffffffffffffffffffffffffffffffffffff168152602001828152602001935050505060405180910390a1505050565b60035481565b60046020528060005260406000206000915090505481565b6005602052806000526040600020600091509050806000015490806001018054600181600116156101000203166002900480601f0160208091040260200160405190810160405280929190818152602001828054600181600116156101000203166002900480156114d55780601f106114aa576101008083540402835291602001916114d5565b820191906000526020600020905b8154815290600101906020018083116114b857829003601f168201915b505050505090806002018054600181600116156101000203166002900480601f0160208091040260200160405190810160405280929190818152602001828054600181600116156101000203166002900480156115735780601f1061154857610100808354040283529160200191611573565b820191906000526020600020905b81548152906001019060200180831161155657829003601f168201915b505050505090806003018054600181600116156101000203166002900480601f0160208091040260200160405190810160405280929190818152602001828054600181600116156101000203166002900480156116115780601f106115e657610100808354040283529160200191611611565b820191906000526020600020905b8154815290600101906020018083116115f457829003601f168201915b5050505050905084565b600560008281526020019081526020016000206000808201600090556001820160006116479190612002565b6002820160006116579190612002565b6003820160006116679190612002565b5050600360008154809291906001900391905055507f42a77abd0397855f875460bb511f41935bfa5f396b556d95717d8c2e08334aae816040518082815260200191505060405180910390a150565b601a60008281526020019081526020016000206000808201600090556001820160006116e29190612002565b6002820160006116f29190612002565b6003820160006117029190612002565b50506000808154809291906001900391905055507fe0e93c98b6521783b1a5188daabb5e51726534e31ca82d44f9e41a024b880474816040518082815260200191505060405180910390a150565b61175861204a565b60066014806020026040519081016040528092919082601480156117c7576020028201915b8160009054906101000a900473ffffffffffffffffffffffffffffffffffffffff1673ffffffffffffffffffffffffffffffffffffffff168152602001906001019080831161177d575b5050505050905090565b80600260008473ffffffffffffffffffffffffffffffffffffffff1673ffffffffffffffffffffffffffffffffffffffff168152602001908152602001600020600082825401925050819055505050565b6006816014811061182f57fe5b016000915054906101000a900473ffffffffffffffffffffffffffffffffffffffff1681565b604051806080016040528085815260200184815260200183815260200182815250601a60008681526020019081526020016000206000820151816000015560208201518160010190805190602001906118af92919061206d565b5060408201518160020190805190602001906118cc92919061206d565b5060608201518160030190805190602001906118e992919061206d565b509050507f95c871e1f70868093a51a8fcbaaee64858343729ef71966d01f08fdef56e4749846040518082815260200191505060405180910390a150505050565b6040518060800160405280858152602001848152602001838152602001828152506005600086815260200190815260200160002060008201518160000155602082015181600101908051906020019061198492919061206d565b5060408201518160020190805190602001906119a192919061206d565b5060608201518160030190805190602001906119be92919061206d565b509050507f29c9c79f57240563ee819e941228a194b90bb9ed36d4ee0b610e897d8712f5ae846040518082815260200191505060405180910390a150505050565b6040518060800160405280600054815260200184815260200183815260200182815250601a600080548152602001908152602001600020600082015181600001556020820151816001019080519060200190611a5c92919061206d565b506040820151816002019080519060200190611a7992919061206d565b506060820151816003019080519060200190611a9692919061206d565b509050507f55a66d8a7427c900449f95db666f83dcd44c6afac57572e03fdf06f7d47be2266000546040518082815260200191505060405180910390a16000808154809291906001019190505550505050565b6000808510158015611afc575060138511155b611b0557600080fd5b8360068660148110611b1357fe5b0160006101000a81548173ffffffffffffffffffffffffffffffffffffffff021916908373ffffffffffffffffffffffffffffffffffffffff160217905550849050949350505050565b60008054905090565b6040518060800160405280600354815260200184815260200183815260200182815250600560006003548152602001908152602001600020600082015181600001556020820151816001019080519060200190611bc492919061206d565b506040820151816002019080519060200190611be192919061206d565b506060820151816003019080519060200190611bfe92919061206d565b50905050600360008154600101919050819055600460003373ffffffffffffffffffffffffffffffffffffffff1673ffffffffffffffffffffffffffffffffffffffff168152602001908152602001600020819055507f27412bb19840b11057dee7c7019767312555c4497d8d4c2383fa6b7791bf014b6003546040518082815260200191505060405180910390a1505050565b600080600090505b600354811015611dd6578380519060200120600560008381526020019081526020016000206001016040518082805460018160011615610100020316600290048015611d1d5780601f10611cfb576101008083540402835291820191611d1d565b820191906000526020600020905b815481529060010190602001808311611d09575b50509150506040518091039020148015611dba57508280519060200120600560008381526020019081526020016000206002016040518082805460018160011615610100020316600290048015611dab5780601f10611d89576101008083540402835291820191611dab565b820191906000526020600020905b815481529060010190602001808311611d97575b50509150506040518091039020145b15611dc9576001915050611ddc565b8080600101915050611c9a565b50600090505b92915050565b60005481565b6000600354905090565b601a602052806000526040600020600091509050806000015490806001018054600181600116156101000203166002900480601f016020809104026020016040519081016040528092919081815260200182805460018160011615610100020316600290048015611ea45780601f10611e7957610100808354040283529160200191611ea4565b820191906000526020600020905b815481529060010190602001808311611e8757829003601f168201915b505050505090806002018054600181600116156101000203166002900480601f016020809104026020016040519081016040528092919081815260200182805460018160011615610100020316600290048015611f425780601f10611f1757610100808354040283529160200191611f42565b820191906000526020600020905b815481529060010190602001808311611f2557829003601f168201915b505050505090806003018054600181600116156101000203166002900480601f016020809104026020016040519081016040528092919081815260200182805460018160011615610100020316600290048015611fe05780601f10611fb557610100808354040283529160200191611fe0565b820191906000526020600020905b815481529060010190602001808311611fc357829003601f168201915b5050505050905084565b60026020528060005260406000206000915090505481565b50805460018160011615610100020316600290046000825580601f106120285750612047565b601f01602090049060005260206000209081019061204691906120ed565b5b50565b604051806102800160405280601490602082028038833980820191505090505090565b828054600181600116156101000203166002900490600052602060002090601f016020900481019282601f106120ae57805160ff19168380011785556120dc565b828001600101855582156120dc579182015b828111156120db5782518255916020019190600101906120c0565b5b5090506120e991906120ed565b5090565b61210f91905b8082111561210b5760008160009055506001016120f3565b5090565b9056fea265627a7a723158203544171936e326f0dcf991d73ee655f85a0d9157a4ea814bd29b72dcc0271f4864736f6c63430005100032",
  "source": "// SPDX-License-Identifier: MIT\npragma solidity >=0.4.16 <0.9.0 ;\n\ncontract SmartParking{\n        uint256 public vehicleCount;\n\n    constructor() public{\n        minter = msg.sender ;\n        UserCount = 0;\n        vehicleCount=0;\n\n        \n    }\n    //money part\n    address public minter ;\n    mapping(address => uint) public balance ;\n\n    // Events allow light client to react on changes effectively\n    event Sent(address from, address to, uint amount) ;\n    function mint(address receiver, uint amount) public{\n        balance[receiver] += amount ;\n    }\n\n    function send(address sender, address receiver, uint amount) public{\n        if(balance[sender] < amount) revert() ;\n        balance[sender] -= amount ;\n        balance[receiver] += amount ;\n        emit Sent(sender,receiver,amount) ;\n    }\n\n    //authentification\n        uint256 public UserCount;\n\n    struct User {\n        uint256 id;\n        string name;\n        string password;\n        string phone;\n    }\n\n    event UserAdded(uint256 _id);\n    event UserDeleted(uint256 _id);\n    event UserEdited(uint256 _id);\n  \n\n    mapping(address => uint256) public userBalances;\n    mapping(uint256 => User) public users;\n\n   \n\n    function getUserCount() public view returns (uint256) {\n        return UserCount;\n    }\n\n    function addUser(\n        string memory _name,\n        string memory _password,\n        string memory _phone\n    ) public {\n        users[UserCount] = User(\n            UserCount,\n            _name,\n            _password,\n            _phone\n        );\n        userBalances[msg.sender] = ++UserCount;\n\n        emit UserAdded(UserCount);\n    }\n\n    function deleteUser(uint256 _id) public {\n        delete users[_id];\n        UserCount--;\n        emit UserDeleted(_id);\n    }\n\n    function editUser(\n        uint256 _id,\n        string memory _name,\n        string memory _password,\n        string memory _phone\n    ) public {\n        users[_id] = User(_id, _name, _password, _phone);\n        emit UserEdited(_id);\n    }\n\n    function signin(string memory _name, string memory _password) public view returns (bool) {\n        for (uint256 i = 0; i < UserCount; i++) {\n            if (keccak256(bytes(users[i].name)) == keccak256(bytes(_name)) &&\n                keccak256(bytes(users[i].password)) == keccak256(bytes(_password))) {\n                return true;\n            }\n        }\n        return false;\n    }\n    //booking part\n     address[20] public adopters ;\n\n    function adopt(uint catId, address adopter, string memory duration,string memory startTime) public returns(uint) {\n        require(catId>=0 && catId<=19) ;\n        adopters[catId] = adopter ;\n        return catId ;\n    }\n\n    function getAdopters() public view returns(address[20] memory){\n        return adopters ;\n    }\n    //vehicule part\n      struct Vehicle {\n        uint256 id;\n        string brand;\n        string lisencePlate;\n        string model;\n    }\n        mapping(uint256 => Vehicle) public vehicles;\n   event VehicleAdded(uint256 _id);\n    event VehicleDeleted(uint256 _id);\n    event VehicleEdited(uint256 _id);\n         function getVehiculeCount() public view returns (uint256 ){\n        return vehicleCount;\n    }\n\n    function addVehicle(\n        string memory _brand,\n        string memory _lisencePlate,\n        string memory _model\n    ) public {\n        vehicles[vehicleCount] = Vehicle(\n            vehicleCount,\n            _brand,\n            _lisencePlate,\n            _model\n        );\n        emit VehicleAdded(vehicleCount);\n        vehicleCount++;\n    }\n\n    function deleteVehicle(uint256 _id) public {\n        delete vehicles[_id];\n        vehicleCount--;\n        emit VehicleDeleted(_id);\n    }\n\n    function editVehicle(\n        uint256 _id,\n        string memory _brand,\n        string memory _lisencePlate,\n        string memory _model\n    ) public {\n        vehicles[_id] = Vehicle(_id, _brand, _lisencePlate, _model);\n        emit VehicleEdited(_id);\n    }\n\n\n   }",
  "sourcePath": "C:\\Users\\ASUS\\Desktop\\Car-main\\contracts\\SmartParking.sol",
  "compiler": {
    "name": "solc",
    "version": "0.5.16+commit.9c3226ce.Emscripten.clang"
  },
  "schemaVersion": "3.4.16",
  "updatedAt": "2024-03-30T19:40:35.256Z",
  "networkType": "ethereum",
  "devdoc": {
    "methods": {}
  },
  "userdoc": {
    "methods": {}
  }
}